:100000000C945E000C9486000C9486000C94860080
:100010000C9486000C9486000C9486000C94860048
:100020000C9486000C9486000C9486000C94860038
:100030000C9486000C9486000C9486000C94860028
:100040000C946C040C9486000C94DC040C94B604A0
:100050000C9486000C9486000C9486000C94860008
:100060000C940E050C9486000000000800020100AC
:100070000003040700000000000000000000000072
:10008000250028002B0000000000240027002A0083
:10009000040404040404040402020202020203032E
:1000A0000303030301020408102040800102040836
:1000B00010200102040810203C06790811241FBEFC
:1000C000CFEFD8E0DEBFCDBF11E0A0E0B1E0E8EBBC
:1000D000F6E102C005900D92A035B107D9F722E0F4
:1000E000A0E5B1E001C01D92A83AB207E1F710E027
:1000F000CDE5D0E004C02197FE010E944D09CC352A
:10010000D107C9F70E947A060C944F0B0C9400009B
:100110002091A2023091A3028217930738F4209114
:100120009E0230919F022115310529F41092F401AD
:1001300084EF91E00895820F931F089590E0FC01F1
:10014000EC55FF4F2491FC01E057FF4F8491882329
:1001500099F090E0880F991FFC01EA57FF4FA59195
:10016000B491FC01E458FF4F859194918FB7F894B6
:10017000EC91E22BEC938FBF089590E0FC01E859DD
:10018000FF4F2491FC01EC55FF4F3491FC01E057E7
:10019000FF4FE491EE2309F43CC0222339F12330D0
:1001A00091F038F42130A9F0223001F584B58F7D2B
:1001B00012C0273091F02830A1F02430B9F480919A
:1001C00080008F7D03C0809180008F7780938000B6
:1001D0000DC084B58F7784BD09C08091B0008F7742
:1001E00003C08091B0008F7D8093B000F0E0EE0FEF
:1001F000FF1FE458FF4FA591B4919FB7F894611188
:1002000004C08C913095382302C0EC913E2B3C9376
:100210009FBF08951F93CF93DF93182FEB010E9488
:100220009E00209711F460E004C0CF3FD10539F45F
:1002300061E0812FDF91CF911F910C94BD00E12FE0
:10024000F0E0E859FF4FE491E330F9F048F4E13091
:10025000B9F0E230A1F584B5806284BDC8BD34C078
:10026000E730E9F0E83019F1E43049F58091800099
:10027000806280938000D0938B00C0938A0024C05A
:1002800084B5806884BDC7BD1FC080918000806830
:1002900080938000D0938900C093880015C080911E
:1002A000B00080688093B000C093B3000DC080910F
:1002B000B00080628093B000C093B40005C0C03825
:1002C000D1050CF0B5CFAFCFDF91CF911F9108953D
:1002D0000895CF93DF93AC01E091E201F091E30147
:1002E0003097F1F09091E1018091E0019817C0F012
:1002F00090E0292F30E02617370754F4D901A05B8E
:10030000BE4FEA01C20FD31F28812C939F5FF1CF0C
:100310001092E1016093E001CB01DF91CF9109944C
:10032000DF91CF910895CF92DF92EF92FF920F93DA
:100330001F93CF93DF936C017A018B01C0E0D0E073
:10034000CE15DF0581F0D8016D918D01D601ED91BB
:10035000FC910190F081E02DC6010995892B11F0E7
:100360002196EECF7E01C701DF91CF911F910F91B2
:10037000FF90EF90DF90CF900895FC01538D448D56
:10038000252F30E0842F90E0821B930B541710F040
:10039000CF96089501970895FC01918D828D98174D
:1003A00061F0828DDF01A80FB11D5D968C91928D59
:1003B0009F5F9F73928F90E008958FEF9FEF089556
:1003C000FC01918D828D981731F0828DE80FF11D1F
:1003D000858D90E008958FEF9FEF0895FC01918D3A
:1003E000228D892F90E0805C9F4F821B91098F7333
:1003F0009927089585EF91E00E94EE0121E0892B75
:1004000009F420E0822F0895FC01848DDF01A80FFC
:10041000B11DA35ABF4F2C91848D90E001968F732C
:100420009927848FA689B7892C93A089B1898C914B
:10043000837080648C93938D848D981306C002889A
:10044000F389E02D80818F7D80830895EF92FF9264
:100450000F931F93CF93DF93EC0181E0888F9B8DE7
:100460008C8D981305C0E889F989808185FD26C0A7
:10047000F62E0B8D10E00F5F1F4F0F731127E02E2C
:100480008C8DE8120CC00FB607FCFACFE889F98909
:10049000808185FFF5CFCE010E940402F1CF8B8DC4
:1004A000FE01E80FF11DE35AFF4FF0829FB7F89469
:1004B0000B8FEA89FB89808180620AC09FB7F8941C
:1004C000EE89FF896083E889F9898081837080647F
:1004D00080839FBF81E090E0DF91CF911F910F91CA
:1004E000FF90EF900895CF93DF93EC01888D8823E0
:1004F000C9F0EA89FB89808185FD05C0A889B98991
:100500008C9186FD0FC00FB607FCF5CF808185FF6B
:10051000F2CFA889B9898C9185FFEDCFCE010E94D9
:100520000402E7CFDF91CF91089585ED8093BC0061
:100530008091BC0084FDFCCF1092DD0108954091B4
:100540009001262F30E0240F311D21323105DCF4DB
:100550002091DD012430C9F4FC0180E090E0861791
:1005600058F4309190012191DC01A059BE4FA30FA6
:10057000B11D2C930196F3CF80919001680F609389
:10058000900180E0089581E0089582E00895089543
:10059000E091E1018091E001E81730F4F0E0E05BE8
:1005A000FE4F808190E008958FEF9FEF0895909126
:1005B000E1018091E001981750F4E92FF0E0E05B51
:1005C000FE4F208130E09F5F9093E10102C02FEF4A
:1005D0003FEFC90108958091E00190E02091E10191
:1005E000821B91090895CF93DF93CB01EA01642F19
:1005F0000E949F02CE01DF91CF910895CF93DF93A8
:100600001F92CDB7DEB7698361E0CE0101960E94EB
:100610009F0281E090E00F90DF91CF9108950895BF
:1006200080E090E0089542E050E06AE271E085EFFA
:1006300091E00C949301CF93DF93EC018881998131
:10064000009711F00E94EB09198218821D821C820A
:100650001B821A82DF91CF9108950E943A0B0F936B
:100660001F93CF93DF93EC0188819981009729F044
:100670002A813B812617370788F48B016F5F7F4FF4
:100680000E94740A009761F0998388831B830A8310
:100690002C813D81232B11F4FC01108281E001C0EB
:1006A00080E0DF91CF911F910F910895EF92FF921B
:1006B0000F931F93CF93DF936115710511F480E0C1
:1006C0001CC041155105C1F07B01EC018C819D815D
:1006D0008A01080F191FB801CE010E942F03882339
:1006E00071F3288139818C819D81B701820F931F1D
:1006F0000E94480B1D830C8381E0DF91CF911F91F5
:100700000F91FF90EF9008950F931F93CF93DF9376
:1007100000D0CDB7DEB701E085EF91E00E94EE0199
:10072000892BA9F085EF91E00E94CC01182F8983D5
:100730001A8241E050E0BE016F5F7F4F8EE992E088
:100740000E9456031A3041F70093EA01E5CF0F905B
:100750000F90DF91CF911F910F9108950E94FA01A0
:1007600081110C94840308950F931F93CF93DF930B
:1007700000D0CDB7DEB701E08091E00190E020919C
:10078000E101821B910918161906ACF482E992E086
:100790000E94D702182F89831A8241E050E0BE01DF
:1007A0006F5F7F4F8EE992E00E9456031A3021F767
:1007B0000093EA01E1CF0F900F90DF91CF911F914D
:1007C0000F910895EF92FF920F931F93CF93DF93B2
:1007D000EC017B018A01BA010E942F03811104C040
:1007E000CE010E941B0307C01D830C83B7018881C3
:1007F00099810E94480BCE01DF91CF911F910F91FB
:10080000FF90EF900895FC011182108213821282F2
:10081000158214826115710551F0FB0101900020D1
:10082000E9F73197AF01461B570B0C94E20308958B
:10083000CF92DF92EF92FF920F931F93CF93DF93AC
:100840006C01EB017A014617570720F48D2FEA015E
:10085000E62EF82E6CE271E0C6010E9403040091BE
:10086000A2021091A302C017D10760F5E016F106AD
:1008700008F48701E0919E02F0919F02E00FF11FC2
:10088000F080108260919E0270919F026C0F7D1F1C
:100890006115710561F0FB0101900020E9F73197C6
:1008A000AF01461B570BC6010E94E20303C0C601FD
:1008B0000E941B0380919E0290919F02FC01E00F19
:1008C000F11FF082C601DF91CF911F910F91FF9030
:1008D000EF90DF90CF9008951F920F920FB60F9276
:1008E00011242F933F938F939F93AF93BF93809146
:1008F000F0019091F101A091F201B091F3013091DA
:10090000EF0123E0230F2D3720F40196A11DB11D27
:1009100005C026E8230F0296A11DB11D2093EF010B
:100920008093F0019093F101A093F201B093F30151
:100930008091EB019091EC01A091ED01B091EE015D
:100940000196A11DB11D8093EB019093EC01A09342
:10095000ED01B093EE01BF91AF919F918F913F91C7
:100960002F910F900FBE0F901F9018951F920F920E
:100970000FB60F9211242F933F934F935F936F9372
:100980007F938F939F93AF93BF93EF93FF9385EFE5
:1009900091E00E940402FF91EF91BF91AF919F916E
:1009A0008F917F916F915F914F913F912F910F9018
:1009B0000FBE0F901F9018951F920F920FB60F92B7
:1009C00011242F938F939F93EF93FF93E091050250
:1009D000F09106028081E0910B02F0910C0282FD01
:1009E00012C0908180910E028F5F8F7320910F0251
:1009F000821751F0E0910E02F0E0EB50FE4F958F20
:100A000080930E0201C08081FF91EF919F918F91A1
:100A10002F910F900FBE0F901F9018951F920F925D
:100A20000FB60F9211242F933F934F935F936F93C1
:100A30007F938F939F93AF93BF93EF93FF93809197
:100A4000B900887F803609F49CC068F5883209F4C3
:100A50005BC090F4803109F454C038F4882309F461
:100A6000F6C0883009F44DC0F6C0883109F44CC096
:100A7000803209F45DC0EFC0803409F468C048F4E6
:100A8000803309F455C0883309F0E5C08093B30181
:100A9000D8C0803509F44FC0883509F45DC088346A
:100AA00009F0D9C0D6C0883909F4C7C0A8F488377E
:100AB00009F467C038F4883609F463C0803709F454
:100AC00060C0C9C0883809F4B8C0803909F45FC073
:100AD000803809F0C0C05BC0803B09F486C038F4A0
:100AE000803A09F466C0883A09F47FC0B4C0803CFB
:100AF00009F4A7C0883C09F4A4C0883B09F48AC063
:100B0000AAC08091D60110C09091D5018091D401E6
:100B1000981770F5E091D50181E08E0F8093D50193
:100B2000F0E0EC54FE4F80818093BB0085EC86C0E2
:100B30008093B3018EC0E091D50181E08E0F809348
:100B4000D5018091BB00F0E0EC54FE4F8083909182
:100B5000D5018091D4016EC0E091D50181E08E0F66
:100B60008093D5018091BB00F0E0EC54FE4F808370
:100B70008091DC0181116DC081E08093DB0184EA0A
:100B800061C083E08093DD011092B201CFCF8091EC
:100B9000B201803208F051C0E091B20181E08E0FC5
:100BA0008093B2018091BB00F0E0EE56FE4F80834F
:100BB000BDCF85EC8093BC001092DD018091B20125
:100BC000803230F4E091B201F0E0EE56FE4F108238
:100BD0006091B20170E0E091D701F091D80182E913
:100BE00091E009951092B20136C084E08093DD0156
:100BF0001092910110929001E091D901F091DA01E7
:100C0000099580919001811105C081E08093900148
:100C100010927001E091910181E08E0F809391011B
:100C2000F0E0E059FE4F80818093BB0090919101EC
:100C300080919001981708F479CF85E88093BC00E3
:100C40000AC085EC8093BC001092DD0104C01092B4
:100C5000B3010E949502FF91EF91BF91AF919F91D7
:100C60008F917F916F915F914F913F912F910F9055
:100C70000FBE0F901F901895E5EFF1E013821282DE
:100C800088EE93E0A0E0B0E084839583A683B783E9
:100C90002AE031E03183208325EC30E0358724875A
:100CA00024EC30E03787268720EC30E0318B208B36
:100CB00021EC30E0338B228B22EC30E0358B248B1F
:100CC00026EC30E0378B268B118E128E138E148E0D
:100CD000E2E9F2E01382128284839583A683B783CC
:100CE0008CE191E0918380836CE271E08EE992E087
:100CF0000C940304CF93DF9300D000D000D0CDB785
:100D0000DEB7789484B5826084BD84B5816084BD8B
:100D100085B5826085BD85B5816085BD80916E0099
:100D2000816080936E0010928100809181008260CA
:100D30008093810080918100816080938100809107
:100D400080008160809380008091B10084608093F6
:100D5000B1008091B00081608093B00080917A00F2
:100D6000846080937A0080917A00826080937A0018
:100D700080917A00816080937A0080917A00806807
:100D800080937A001092C1000FB6F894A8958091D4
:100D90006000886180936000109260000FBE109226
:100DA000E1011092E0011092DF011092DE01109239
:100DB000DD0181E08093DC011092DB0161E082E1E2
:100DC0000E94BD0061E083E10E94BD008091B900F6
:100DD0008E7F8093B9008091B9008D7F8093B90098
:100DE00088E48093B80085E48093BC0088E691E0B5
:100DF0009093DA018093D90189E691E09093D8012C
:100E00008093D70186E08093BA0024EB33E03093DF
:100E1000E3012093E201E0910502F091060292E0E5
:100E20009083E0910102F09102021082E0910302AE
:100E3000F09104029FEC908310920D02E091090260
:100E4000F0910A028083E0910702F091080280810C
:100E500080618083E0910702F091080280818860C0
:100E60008083E0910702F09108028081806880838E
:100E7000E0910702F091080280818F7D808361E418
:100E800070E08EE992E00E942F0385E00E949E00B0
:100E900089E00E949E0060E070E085E00E940A0107
:100EA00060E070E089E00E940A0199E288E10FB6F3
:100EB000F894A895809360000FBE909360008CE337
:100EC000C82ED12CE12CF12C8091EA01882309F461
:100ED00009C180E090E00E948800FC018081873792
:100EE00081F56DE271E0CE0101960E94030440910C
:100EF000A2025091A30260919E0270919F02CE01C6
:100F000001960E945603811104C0CE0101960E94F1
:100F10001B034D815E8169817A8185EF91E00E949A
:100F200093010E94130389819A810E94EB0980E05A
:100F300090E00E948800FC018081873709F061C041
:100F400015C043E050E060E471E085EF91E00E945D
:100F500093010E9413034BE050E064E471E085EFDD
:100F600091E00E9493010E941303B1C089E090E0D8
:100F70000E948800FC018081843709F042C045E06E
:100F800050E062E070E0CE0101960E941804A98052
:100F9000BA80A114B10409F4AAC0C5010E947F0857
:100FA0006093E701C5010E94EB0949E050E066E06B
:100FB00070E0CE0101960E941804A980BA80A114A5
:100FC000B10409F492C0C5010E947F086093E60154
:100FD000C5010E94EB098EE090E00E948800FC01B0
:100FE000808180538093E8018FE090E00E94880028
:100FF000FC01808180538093E90180E190E00E94B0
:101000008800B090E9018091E80181112AC0209107
:10101000E7018091E501821749F1265F822F90E078
:10102000A0E0B0E09C01AD0128523109410951090D
:10103000A9E9B0E00E94DA08A70196010E94BB0866
:1010400029013A01F6E64F0E511C611C711C4092B9
:10105000E701642D70E085E00E940A014092E501FD
:1010600005C060E070E085E00E940A01B1102AC06E
:101070002091E6018091E401821749F12B5F822FD4
:1010800090E0A0E0B0E09C01AD0128523109410997
:101090005109A9E9B0E00E94DA08A70196010E946F
:1010A000BB0849015A0186E6880E911CA11CB11C9F
:1010B0008092E601682D70E089E00E940A0180922A
:1010C000E40105C060E070E089E00E940A0110922E
:1010D000EA0140E050E06CE271E08EE992E00E94AB
:1010E000E203A8950E94AE03EFCE60E06FCF60E010
:1010F00057CF80919E0290919F020C94EB091F9311
:10110000FC0199278827BC01E89411911032E9F37A
:10111000193010F01E30C8F31B3251F01D3249F463
:10112000689406C00E94A608610F711D811D911D63
:10113000119110531A30B0F33EF49095809570954C
:1011400061957F4F8F4F9F4F1F910895592F482FC3
:10115000372F262F660F771F881F991F660F771F5F
:10116000881F991F620F731F841F951F660F771FBB
:10117000881F991F0895052E97FB1EF400940E9466
:10118000D20857FD07D00E941C0907FC03D04EF47B
:101190000C94D20850954095309521953F4F4F4F74
:1011A0005F4F089590958095709561957F4F8F4F13
:1011B0009F4F08950E943E09A59F900DB49F900DEA
:1011C000A49F800D911D112408952F923F924F925C
:1011D0005F926F927F928F929F92AF92BF92CF92C7
:1011E000DF92EF92FF920F931F93CF93DF93CDB7D0
:1011F000DEB7CA1BDB0B0FB6F894DEBF0FBECDBF48
:1012000009942A88398848885F846E847D848C8418
:101210009B84AA84B984C884DF80EE80FD800C8121
:101220001B81AA81B981CE0FD11D0FB6F894DEBF04
:101230000FBECDBFED010895A1E21A2EAA1BBB1B64
:10124000FD010DC0AA1FBB1FEE1FFF1FA217B30792
:10125000E407F50720F0A21BB30BE40BF50B661FA8
:10126000771F881F991F1A9469F76095709580956C
:1012700090959B01AC01BD01CF010895A29FB001E3
:10128000B39FC001A39F700D811D1124911DB29FBA
:10129000700D811D1124911D0895EE0FFF1F059003
:1012A000F491E02D09940F931F93CF93DF93823035
:1012B000910510F482E090E0E091A602F091A7027F
:1012C00020E030E0A0E0B0E0309719F1408151819A
:1012D0000281138148175907C8F08417950769F4EC
:1012E000109731F012960C93129713961C9327C007
:1012F0000093A6021093A70222C02115310519F010
:101300004217530718F49A01BD01EF01DF01F801FC
:10131000DBCF21153105F9F0281B390B24303105BD
:1013200080F48A819B816115710521F0FB01938313
:10133000828304C09093A7028093A602FE01329696
:1013400044C0FE01E20FF31F8193919322503109B3
:10135000398328833AC02091A4023091A502232B1F
:1013600041F420910201309103013093A5022093B2
:10137000A40220910001309101012115310541F4B1
:101380002DB73EB74091040150910501241B350B48
:10139000E091A402F091A502E217F307A0F42E1B3E
:1013A0003F0B2817390778F0AC014E5F5F4F2417C9
:1013B000350748F04E0F5F1F5093A5024093A402DB
:1013C0008193919302C0E0E0F0E0CF01DF91CF91F3
:1013D0001F910F910895CF93DF93009709F481C077
:1013E000FC01329713821282A091A602B091A7024B
:1013F000109781F420813181820F931F2091A402E4
:101400003091A5022817390751F5F093A502E09312
:10141000A40267C0ED0120E030E0CE17DF0740F402
:101420004A815B819E0141155105F1F0EA01F5CF3A
:10143000D383C28340815181840F951FC817D90778
:1014400059F488819981840F951F02969183808336
:101450008A819B81938382832115310529F4F0933E
:10146000A702E093A6023DC0E901FB83EA8349910C
:101470005991C40FD51FEC17FD0761F4808191814C
:10148000840F951F0296E901998388838281938155
:101490009B838A83E0E0F0E012968D919C911397F4
:1014A000009719F0FD01DC01F7CF8D919C91119708
:1014B0009D012E5F3F4F820F931F2091A402309118
:1014C000A5022817390769F4309729F41092A7026A
:1014D0001092A60202C013821282B093A502A093BA
:1014E000A402DF91CF910895A0E0B0E0EAE7FAE02E
:1014F0000C94E908EC01009721F4CB010E945309F8
:10150000B4C0FC01E60FF71F9C0122503109E2171D
:10151000F30708F4A8C0D9010D911C911197061783
:101520001707B0F00530110508F49BC0C8010497F7
:101530008617970708F495C002501109061B170B70
:10154000019311936D937C93CF010E94EB0989C0A5
:101550005B01A01AB10A4C01800E911EA091A60257
:10156000B091A702612C712CE12CF12C109709F499
:1015700046C08D919C911197A815B905B1F56C01E4
:1015800042E0C40ED11CCA14DB0478F14C018A1865
:101590009B08640142E0C40ED11C1296BC901297C5
:1015A0001396AC91B5E0CB16D10440F0B282A38380
:1015B00091828082D9016D937C9309C00E5F1F4F89
:1015C000800F911FF90191838083EB2DFA2FE11495
:1015D000F10431F0D7011396FC93EE93129741C0BA
:1015E000F093A702E093A6023CC06816790608F4BF
:1015F0003C017D0112960D90BC91A02DB7CF80913A
:10160000A4029091A50288169906E1F46616770661
:10161000C8F48091000190910101009741F48DB7C9
:101620009EB74091040150910501841B950BE8176A
:10163000F907C8F4F093A502E093A402F9017183BD
:1016400060830FC0CB010E9453097C01009759F0C1
:10165000A801BE010E943F0BCE010E94EB09C70109
:1016600004C0CE0102C080E090E0CDB7DEB7EEE06E
:101670000C94050981E090E0F8940C944F0BFB0169
:10168000DC0102C001900D9241505040D8F70895FE
:10169000FB01DC0101900D920020E1F7089510E0BC
:1016A000CDE5D0E004C0FE010E944D092196CE3563
:0816B000D107C9F7F894FFCF40
:1016B8000000A80280000000000026029301BD017E
:1016C8007302EE01CC01E00100000000FE02F3020B
:1016D8001003C702EB02D702C8020D0A0075635F48
:1016E800736C617665325F6563686F20773A2000B6
:1016F80042414400424144206D657373616765004F
:00000001FF
