:100000000C9436000C945E000C945E000C945E0020
:100010000C945E000C945E000C945E000C945E00E8
:100020000C945E000C945E000C945E000C945E00D8
:100030000C945E000C94FA030C945E000C945E0029
:100040000C9458030C945E000C94C8030C94A20307
:100050000C945E000C945E000C945E000C945E00A8
:100060000C945E000C945E0021049E0611241FBEB9
:10007000CFEFD8E0DEBFCDBF22E0AAE3B1E001C000
:100080001D92A534B207E1F711E0A0E0B1E0E8EB82
:10009000F2E102C005900D92AA33B107D9F710E042
:1000A000C5E3D0E004C02197FE010E944D07C43390
:1000B000D107C9F70E9489040C944F090C940000E1
:1000C000FC01808191818617970731F485B1482B17
:1000D00045B91182108206C0C29721F485B14095BE
:1000E000482345B980819181019691838083089549
:1000F00020913F02309140028217930738F42091FB
:100100003B0230913C022115310529F41092670120
:1001100087E691E00895820F931F08955B9A60919E
:1001200040017091410141E08EE391E00E94600046
:1001300060913C0170913D0142E08AE391E00E94B0
:1001400060006091590170915A0144E087E591E0A7
:100150000E946000609153017091540148E081E574
:1001600091E00E94600060914D0170914E0140E16C
:100170008BE491E00E9460005B980895CF92DF923B
:10018000EF92FF920F931F93CF93DF936C017A014D
:100190008B01C0E0D0E0CE15DF0581F0D8016D9174
:1001A0008D01D601ED91FC910190F081E02DC60109
:1001B0000995892B11F02196EECF7E01C701DF91C1
:1001C000CF911F910F91FF90EF90DF90CF90089506
:1001D000089580E090E00895FC01538D448D252F13
:1001E00030E0842F90E0821B930B541710F0CF96D1
:1001F000089501970895FC01918D828D981761F003
:10020000828DDF01A80FB11D5D968C91928D9F5F4D
:100210009F73928F90E008958FEF9FEF0895FC01F8
:10022000918D828D981731F0828DE80FF11D858DAB
:1002300090E008958FEF9FEF0895FC01918D228D3E
:10024000892F90E0805C9F4F821B91098F739927C3
:10025000089588E691E00E941D0121E0892B09F4B0
:1002600020E0822F0895FC01848DDF01A80FB11DCD
:10027000A35ABF4F2C91848D90E001968F739927DC
:10028000848FA689B7892C93A089B1898C918370BA
:1002900080648C93938D848D981306C00288F389B3
:1002A000E02D80818F7D80830895EF92FF920F93E0
:1002B0001F93CF93DF93EC0181E0888F9B8D8C8D12
:1002C000981305C0E889F989808185FD26C0F62E3E
:1002D0000B8D10E00F5F1F4F0F731127E02E8C8DD9
:1002E000E8120CC00FB607FCFACFE889F9898081C3
:1002F00085FFF5CFCE010E943301F1CF8B8DFE013A
:10030000E80FF11DE35AFF4FF0829FB7F8940B8F6F
:10031000EA89FB89808180620AC09FB7F894EE89E0
:10032000FF896083E889F989808183708064808394
:100330009FBF81E090E0DF91CF911F910F91FF90DF
:10034000EF900895CF93DF93EC01888D8823C9F057
:10035000EA89FB89808185FD05C0A889B9898C91CE
:1003600086FD0FC00FB607FCF5CF808185FFF2CF69
:10037000A889B9898C9185FFEDCFCE010E94330108
:10038000E7CFDF91CF910895FB01DA011D921C9216
:10039000811103C0118210820895682F70E088E9EE
:1003A0009AE30E9439076536710528F484E690E0E7
:1003B0009183808308957183608368397A4309F457
:1003C000089508950E943A090F931F93CF93DF93E6
:1003D000EC0188819981009729F02A813B812617B9
:1003E000370788F48B016F5F7F4F0E947408009776
:1003F00061F0998388831B830A832C813D81232BA1
:1004000011F4FC01108281E001C080E0DF91CF9106
:100410001F910F910895EF92FF920F931F93CF9327
:10042000DF9300D0CDB7DEB7EE24E39488E691E009
:100430000E941D01892B69F188E691E00E94FB0072
:10044000F82E89831A8200913F02109140020F5FBB
:100450001F4FB8018BE392E00E94E401882399F0DA
:1004600020913B0230913C0280913F0290914002EA
:10047000BE016F5F7F4F820F931F0E944809109348
:10048000400200933F028AE0F812D0CFE0925D0173
:10049000CDCF0F900F90DF91CF911F910F91FF90D3
:1004A000EF9008950E94290181110C940B02089588
:1004B000CF93DF93EC0188819981009711F00E941E
:1004C000EB07198218821D821C821B821A82DF911F
:1004D000CF910895EF92FF920F931F93CF93DF93E5
:1004E000EC01198218821B821A821D821C826115FE
:1004F000710521F18B01FB0101900020E9F7319793
:100500007F01E61AF70AB7010E94E401811109C0D0
:10051000CE01DF91CF911F910F91FF90EF900C943E
:100520005802FD82EC82B80188819981DF91CF91D8
:100530001F910F91FF90EF900C944809DF91CF919C
:100540001F910F91FF90EF900895EF92FF920F93FC
:100550001F93CF93DF938C017B016115710569F0C7
:10056000FB0101900020E9F73197EF01C61BD70B83
:10057000BE010E94E401811104C0C8010E9458021A
:1005800008C0F801D583C483B701808191810E949E
:100590004809C801DF91CF911F910F91FF90EF9013
:1005A0000895CF92DF92EF92FF920F931F93CF9314
:1005B000DF936C018B017A014617570720F4812FD6
:1005C0008A01E62EF82E6DE171E0C6010E946A02F2
:1005D000C0913F02D09140020C171D07E0F4EC16C9
:1005E000FD0608F4E701E0913B02F0913C02EC0FBC
:1005F000FD1FF080108260913B0270913C02600F01
:10060000711FC6010E94A50280913B0290913C029D
:10061000C80FD91FF882C601DF91CF911F910F91AA
:10062000FF90EF90DF90CF90089510925D016DE103
:1006300071E08FE292E00E94A5026DE171E083E239
:1006400092E00E94A5026DE171E08BE092E00E94D1
:10065000A5026DE171E087E192E00E94A5026DE1E3
:1006600071E085E392E00E94A5026DE171E089E20C
:1006700092E00E94A5026DE171E085E092E00E94A7
:10068000A5026DE171E08DE192E00E94A5026DE1AD
:1006900071E081E192E00E94A5026DE171E08BE3DF
:1006A00092E00C94A502FC01808191810C94EB07EF
:1006B0001F920F920FB60F9211242F933F938F9397
:1006C0009F93AF93BF938091630190916401A09138
:1006D0006501B09166013091620123E0230F2D374F
:1006E00020F40196A11DB11D05C026E8230F029636
:1006F000A11DB11D20936201809363019093640159
:10070000A0936501B093660180915E0190915F01B5
:10071000A0916001B09161010196A11DB11D80936E
:100720005E0190935F01A0936001B0936101BF915E
:10073000AF919F918F913F912F910F900FBE0F908E
:100740001F9018951F920F920FB60F9211242F939E
:100750003F934F935F936F937F938F939F93AF9349
:10076000BF93EF93FF9388E691E00E943301FF91DE
:10077000EF91BF91AF919F918F917F916F915F9119
:100780004F913F912F910F900FBE0F901F90189592
:100790001F920F920FB60F9211242F938F939F9356
:1007A000EF93FF93E0917801F09179018081E091DE
:1007B0007E01F0917F0182FD12C0908180918101C4
:1007C0008F5F8F7320918201821751F0E091810138
:1007D000F0E0E859FE4F958F8093810101C0808140
:1007E000FF91EF919F918F912F910F900FBE0F90DE
:1007F0001F9018951F920F920FB60F9211242F93EE
:100800003F934F935F936F937F938F939F93AF9398
:10081000BF93EF93FF93E0914601F0914701099553
:10082000FF91EF91BF91AF919F918F917F916F91C8
:100830005F914F913F912F910F900FBE0F901F909E
:100840001895E8E6F1E01382128288EE93E0A0E0CA
:10085000B0E084839583A683B7838DE091E0918394
:10086000808385EC90E09587848784EC90E097877F
:10087000868780EC90E0918B808B81EC90E0938B6D
:10088000828B82EC90E0958B848B86EC90E0978B4A
:10089000868B118E128E138E148E6DE171E08BE3B8
:1008A00092E00E946A026DE171E085E392E00E94AD
:1008B0006A026DE171E08FE292E00E946A026DE1EE
:1008C00071E089E292E00E946A026DE171E083E2E8
:1008D00092E00E946A026DE171E08DE192E00E9477
:1008E0006A026DE171E087E192E00E946A026DE1C7
:1008F00071E081E192E00E946A026DE171E08BE0BB
:1009000092E00E946A026DE171E085E092E00C9451
:100910006A02CF93DF9300D000D000D0CDB7DEB70E
:10092000789484B5826084BD84B5816084BD85B5CA
:10093000826085BD85B5816085BD80916E008160D6
:1009400080936E001092810080918100826080937C
:10095000810080918100816080938100809180007E
:100960008160809380008091B10084608093B100A9
:100970008091B00081608093B00080917A008460A3
:1009800080937A0080917A00826080937A008091CF
:100990007A00816080937A0080917A0080688093E9
:1009A0007A001092C1000FB6F894A895809160006B
:1009B000886180936000109260000FBEE091780122
:1009C000F091790182E08083E0917401F0917501EA
:1009D0001082E0917601F09177018FEC8083109284
:1009E0008001E0917C01F0917D0186E08083E091BF
:1009F0007A01F0917B01808180618083E0917A01AE
:100A0000F0917B01808188608083E0917A01F09190
:100A10007B01808180688083E0917A01F0917B0185
:100A200080818F7D808384B18F6384B987B18E6329
:100A300087B98AB188638AB91092800080E1809377
:100A4000810021E0209344018FB780934501F89401
:100A500080EA90E090934301809342019093870055
:100A600080938600809145018FBF80918100887FAF
:100A7000809381009091810080914401982B909304
:100A800081004EE850E05093470140934601209387
:100A90006F0090918100892B8093810061E470E068
:100AA0008BE392E00E94E40199E288E10FB6F894AA
:100AB000A895809360000FBE9093600080915D01C7
:100AC000882309F4F7C080E090E00E947800FC01E0
:100AD0008081873709F0F1C089E090E00E947800BA
:100AE000FC018081843709F0E8C06AE271E0CE0140
:100AF00001960E946A0200913F0210914002E0902C
:100B00003B02F0903C02E114F10409F412C101151A
:100B1000110509F0E5C04D815E8169817A8188E621
:100B200091E00E94BE0042E050E06BE171E088E697
:100B300091E00E94BE00CE0101960E94530345E061
:100B400050E062E070E0CE0101960E94D1028981FE
:100B50009A81009709F4DBC00E94C60660935C018D
:100B6000CE0101960E94530349E050E066E070E038
:100B7000CE0101960E94D10289819A81009709F4E1
:100B8000C8C00E94C60660935601CE0101960E941D
:100B900053034EE050E06BE070E0CE0101960E94FE
:100BA000D10289819A81009709F4B5C00E94C606D6
:100BB00060935001CE0101960E9453038FE090E0B4
:100BC0000E947800FC011081105310934A0180E1CB
:100BD00090E00E947800FC0180818053809349015D
:100BE00081E190E00E947800FC0180818053809335
:100BF000480180915C0190915B01891751F047E5B4
:100C000051E069E571E00E94C40180915C0180932C
:100C10005B018091560190915501891751F041E592
:100C200051E063E571E00E94C40180915601809318
:100C300055018091500190914F01891751F04BE47B
:100C400051E06DE471E00E94C401809150018093F5
:100C50004F01111162C080915C01882309F45DC0CD
:100C6000429A80910201882309F459C0439A8091E5
:100C70004901811156C080915601882309F451C061
:100C8000449A80910101882309F44DC0409A8091D3
:100C9000480181114AC080915001882309F445C060
:100CA000459A80910001882309F441C02D9A0E9441
:100CB0001503A8950E94520201CF4BE050E06EE16F
:100CC00071E088E691E00E94BE0042E050E06BE1F6
:100CD00071E088E691E00E94BE000E941503EACF11
:100CE0008D819E81080F191FB801CE0101960E94C7
:100CF000E4018823F1F029813A818D819E81B70139
:100D0000820F931F0E9448091E830D8304CF60E069
:100D100025CF60E038CF60E04BCF4298A2CF439818
:100D2000A6CF4498AECF4098B2CF4598BACF2D9871
:100D3000BECFCE0101960E945802EDCE85E092E032
:100D40000E9453038BE092E00E94530381E192E002
:100D50000E94530387E192E00E9453038DE192E0E9
:100D60000E94530383E292E00E94530389E292E0DF
:100D70000E9453038FE292E00E94530385E392E0C6
:100D80000E9453038BE392E00C9453031F93FC01E6
:100D900099278827BC01E89411911032E9F31930A2
:100DA00010F01E30C8F31B3251F01D3249F4689424
:100DB00006C00E94ED06610F711D811D911D1191EC
:100DC00010531A30B0F33EF490958095709561956C
:100DD0007F4F8F4F9F4F1F910895592F482F372FC7
:100DE000262F660F771F881F991F660F771F881F92
:100DF000991F620F731F841F951F660F771F881F2F
:100E0000991F08952F923F924F925F926F927F9217
:100E10008F929F92AF92BF92CF92DF92EF92FF920A
:100E20000F931F93CF93DF93CDB7DEB7CA1BDB0BB6
:100E30000FB6F894DEBF0FBECDBF09942A8839885B
:100E400048885F846E847D848C849B84AA84B98462
:100E5000C884DF80EE80FD800C811B81AA81B9816E
:100E6000CE0FD11D0FB6F894DEBF0FBECDBFED0182
:100E70000895AA1BBB1B51E107C0AA1FBB1FA617E1
:100E8000B70710F0A61BB70B881F991F5A95A9F733
:100E900080959095BC01CD010895EE0FFF1F059040
:100EA000F491E02D09940F931F93CF93DF93823039
:100EB000910510F482E090E0E0914302F091440249
:100EC00020E030E0A0E0B0E0309719F1408151819E
:100ED0000281138148175907C8F08417950769F4F0
:100EE000109731F012960C93129713961C9327C00B
:100EF000009343021093440222C02115310519F0DA
:100F00004217530718F49A01BD01EF01DF01F80100
:100F1000DBCF21153105F9F0281B390B24303105C1
:100F200080F48A819B816115710521F0FB01938317
:100F3000828304C09093440280934302FE01329660
:100F400044C0FE01E20FF31F8193919322503109B7
:100F5000398328833AC02091410230914202232BE9
:100F600041F4209105013091060130934202209313
:100F7000410220910301309104012115310541F412
:100F80002DB73EB74091070150910801241B350B46
:100F9000E0914102F0914202E217F307A0F42E1B08
:100FA0003F0B2817390778F0AC014E5F5F4F2417CD
:100FB000350748F04E0F5F1F5093420240934102A5
:100FC0008193919302C0E0E0F0E0CF01DF91CF91F7
:100FD0001F910F910895CF93DF93009709F481C07B
:100FE000FC01329713821282A0914302B091440215
:100FF000109781F420813181820F931F209141024B
:10100000309142022817390751F5F0934202E093DC
:10101000410267C0ED0120E030E0CE17DF0740F469
:101020004A815B819E0141155105F1F0EA01F5CF3E
:10103000D383C28340815181840F951FC817D9077C
:1010400059F488819981840F951F0296918380833A
:101050008A819B81938382832115310529F4F09342
:101060004402E09343023DC0E901FB83EA834991D6
:101070005991C40FD51FEC17FD0761F48081918150
:10108000840F951F0296E901998388838281938159
:101090009B838A83E0E0F0E012968D919C911397F8
:1010A000009719F0FD01DC01F7CF8D919C9111970C
:1010B0009D012E5F3F4F820F931F2091410230917F
:1010C00042022817390769F4309729F41092440234
:1010D0001092430202C013821282B0934202A09384
:1010E0004102DF91CF910895A0E0B0E0EAE7F8E097
:1010F0000C940607EC01009721F4CB010E945307E2
:10110000B4C0FC01E60FF71F9C0122503109E21721
:10111000F30708F4A8C0D9010D911C911197061787
:101120001707B0F00530110508F49BC0C8010497FB
:101130008617970708F495C002501109061B170B74
:10114000019311936D937C93CF010E94EB0789C0AB
:101150005B01A01AB10A4C01800E911EA0914302BE
:10116000B0914402612C712CE12CF12C109709F400
:1011700046C08D919C911197A815B905B1F56C01E8
:1011800042E0C40ED11CCA14DB0478F14C018A1869
:101190009B08640142E0C40ED11C1296BC901297C9
:1011A0001396AC91B5E0CB16D10440F0B282A38384
:1011B00091828082D9016D937C9309C00E5F1F4F8D
:1011C000800F911FF90191838083EB2DFA2FE11499
:1011D000F10431F0D7011396FC93EE93129741C0BE
:1011E000F0934402E09343023CC06816790608F489
:1011F0003C017D0112960D90BC91A02DB7CF80913E
:1012000041029091420288169906E1F4661677062B
:10121000C8F48091030190910401009741F48DB7C7
:101220009EB74091070150910801841B950BE81768
:10123000F907C8F4F0934202E0934102F901718387
:1012400060830FC0CB010E9453077C01009759F0C7
:10125000A801BE010E943F09CE010E94EB07C70111
:1012600004C0CE0102C080E090E0CDB7DEB7EEE072
:101270000C94220781E090E0F8940C944F09FB0154
:10128000DC0102C001900D9241505040D8F7089502
:10129000FB01DC0101900D920020E1F7089510E0C0
:1012A000C5E3D0E004C0FE010E944D072196C6337D
:0812B000D107C9F7F894FFCF44
:1012B800010101000045028000000000005501BE48
:1012C80000EC00A2011D01FB000F010D0A004241C4
:1012D80044206D65737361676500476F6F64206DA7
:0A12E8006573736167653A2000002A
:00000001FF
